:020000040800F2
:1000000000500020D18A0008BD2E0008BF2E000835
:10001000C12E0008C32E0008C52E000800000000F5
:100020000000000000000000000000001170000847
:10003000C72E000800000000B1700008D56B000852
:10004000198B0008198B0008198B0008198B000800
:10005000198B0008198B0008198B0008198B0008F0
:10006000198B0008198B0008198B0008198B0008E0
:10007000198B0008198B0008198B0008198B0008D0
:10008000198B0008198B0008198B0008198B0008C0
:10009000C92E0008198B0008198B0008198B00085D
:1000A000198B0008198B0008198B0008198B0008A0
:1000B000198B0008198B0008D92E0008198B00082D
:1000C000198B0008198B0008198B0008198B000880
:1000D000198B0008198B0008198B0008198B000870
:1000E000198B0008198B0008198B0008000000000C
:1000F0000000000000000000000000000000000000
:0C01000000000000000000005FF808F1A3
:1001100080F0004002E000BF81F0004142001FBFBC
:100120005FEA410392EA030F7FEA226C7FEA236CC5
:100130006AD04FEA1262D2EB1363C1BFD2184140BA
:1001400048404140B8BF5B42192B88BF704710F050
:10015000004F40F4000020F07F4018BF404211F0F3
:10016000004F41F4000121F07F4118BF494292EA5B
:10017000030F3FD0A2F1010241FA03FC10EB0C0087
:10018000C3F1200301FA03F100F0004302D5494214
:1001900060EB4000B0F5000F13D3B0F1807F06D3C1
:1001A00040084FEA310102F10102FE2A51D2B1F1B9
:1001B000004F40EBC25008BF20F0010040EA0300AE
:1001C0007047490040EB0000013A28BFB0F5000F2E
:1001D000EDD2B0FA80FCACF1080CB2EB0C0200FAE4
:1001E0000CF0AABF00EBC25052421843BCBFD04033
:1001F0001843704792F0000F81F4000106BF80F4AD
:1002000000000132013BB5E74FEA41037FEA226C6F
:1002100018BF7FEA236C21D092EA030F04D092F03A
:10022000000F08BF0846704790EA010F1CBF00206E
:10023000704712F07F4F04D1400028BF40F00040CB
:10024000704712F100723CBF00F50000704700F0EB
:10025000004343F0FE4040F4000070477FEA226212
:1002600016BF08467FEA23630146420206BF5FEAE3
:10027000412390EA010F40F4800070474FF00003E3
:1002800004E000BF10F0004348BF40425FEA000CAA
:1002900008BF704743F0964301464FF000001CE052
:1002A00050EA010208BF70474FF000030AE000BFA8
:1002B00050EA010208BF704711F0004302D54042E6
:1002C00061EB41015FEA010C02BF84460146002058
:1002D00043F0B64308BFA3F18053A3F50003BCFA73
:1002E0008CF2083AA3EBC25310DB01FA02FC634420
:1002F00000FA02FCC2F12002BCF1004F20FA02F227
:1003000043EB020008BF20F00100704702F1200219
:1003100001FA02FCC2F1200250EA4C0021FA02F27A
:1003200043EB020008BF20EADC7070474FF0FF0C7F
:100330001CEAD0521EBF1CEAD15392EA0C0F93EA7A
:100340000C0F6FD01A4480EA010C400218BF5FEA1C
:1003500041211ED04FF0006343EA501043EA51118F
:10036000A0FB01310CF00040B1F5000F3EBF490089
:1003700041EAD3715B0040EA010062F17F02FD2A8D
:100380001DD8B3F1004F40EBC25008BF20F0010070
:10039000704790F0000F0CF0004C08BF49024CEA87
:1003A000502040EA51207F3AC2BFD2F1FF0340EA19
:1003B000C250704740F400004FF00003013A5DDC8A
:1003C00012F1190FDCBF00F000407047C2F10002CB
:1003D000410021FA02F1C2F1200200FA02FC5FEAB8
:1003E000310040F1000053EA4C0308BF20EADC7002
:1003F000704792F0000F00F0004C02BF400010F474
:10040000000F013AF9D040EA0C0093F0000F01F020
:10041000004C02BF490011F4000F013BF9D041EA42
:100420000C018FE70CEAD15392EA0C0F18BF93EA44
:100430000C0F0AD030F0004C18BF31F0004CD8D16E
:1004400080EA010000F00040704790F0000F17BFF5
:1004500090F0004F084691F0000F91F0004F14D03B
:1004600092EA0C0F01D142020FD193EA0C0F03D193
:100470004B0218BF084608D180EA010000F0004096
:1004800040F0FE4040F40000704740F0FE4040F471
:10049000400070474FF0FF0C1CEAD0521EBF1CEA10
:1004A000D15392EA0C0F93EA0C0F69D0A2EB03022E
:1004B00080EA010C49024FEA402037D04FF08053C8
:1004C00043EA111143EA10130CF000408B4238BF8D
:1004D0005B0042F17D024FF4000C8B4224BF5B1A9B
:1004E00040EA0C00B3EB510F24BFA3EB510340EAE9
:1004F0005C00B3EB910F24BFA3EB910340EA9C0097
:10050000B3EBD10F24BFA3EBD10340EADC001B0106
:1005100018BF5FEA1C1CE0D1FD2A3FF650AF8B42AA
:1005200040EBC25008BF20F0010070470CF0004CB7
:100530004CEA50207F32C2BFD2F1FF0340EAC250E2
:10054000704740F400004FF00003013A37E792F0A3
:10055000000F00F0004C02BF400010F4000F013A01
:10056000F9D040EA0C0093F0000F01F0004C02BFFC
:10057000490011F4000F013BF9D041EA0C0195E765
:100580000CEAD15392EA0C0F08D142027FF47DAFFE
:1005900093EA0C0F7FF470AF084676E793EA0C0FEE
:1005A00004D14B023FF44CAF08466EE730F0004CEC
:1005B00018BF31F0004CCAD130F000427FF45CAF7C
:1005C00031F000437FF43CAF5FE700BF4FF0FF3CEA
:1005D00006E000BF4FF0010C02E000BF4FF0010C3D
:1005E0004DF804CD4FEA40024FEA41037FEA226C06
:1005F00018BF7FEA236C11D001B052EA530C18BF28
:1006000090EA010F58BFB2EB030088BFC81738BF8C
:100610006FEAE17018BF40F0010070477FEA226C7A
:1006200002D15FEA402C05D17FEA236CE4D15FEA76
:10063000412CE1D05DF8040B704700BF84460846AA
:100640006146FFE70FB5FFF7C9FF002848BF10F16B
:10065000000F0FBD4DF808EDFFF7F4FF0CBF0120B0
:1006600000205DF808FB00BF4DF808EDFFF7EAFF3A
:1006700034BF012000205DF808FB00BF4DF808EDF5
:10068000FFF7E0FF94BF012000205DF808FB00BFEA
:100690004DF808EDFFF7D2FF94BF012000205DF870
:1006A00008FB00BF4DF808EDFFF7C8FF34BF01207D
:1006B00000205DF808FB00BF4FEA40024FEA41030B
:1006C0007FEA226C02D15FEA402C08D17FEA236CDA
:1006D00002D15FEA412C02D14FF0000070474FF089
:1006E000010070474FEA4002B2F1FE4F0FD34FF0C6
:1006F0009E03B3EB12620DD94FEA002343F000438F
:1007000010F0004F23FA02F018BF404270474FF03C
:100710000000704712F1610F01D1420205D110F0C3
:10072000004008BF6FF0004070474FF00000704776
:1007300042000ED2B2F1FE4F0BD34FF09E03B3EB4B
:10074000126209D44FEA002343F0004323FA02F077
:1007500070474FF00000704712F1610F01D1420263
:1007600002D14FF0FF3070474FF00000704700BFDC
:10077000034613F8012B002AFBD1181A01387047E1
:100780000348044B834202D0034B03B11847704720
:10079000D0010020D0010020000000000548064BD9
:1007A0001B1AD90F01EBA301491002D0034B03B16F
:1007B00018477047D0010020D00100200000000041
:1007C00010B5064C237843B9FFF7DAFF044B13B199
:1007D0000448AFF300800123237010BDD001002036
:1007E00000000000DCB5000808B5054B1BB1054949
:1007F0000548AFF30080BDE80840FFF7CFBF00BF5A
:1008000000000000D4010020DCB5000810B504464B
:1008100008E004F80E0092F800C00CF1010C82F818
:1008200000C00133187838B192F800E001F1FF3CC4
:100830005FFA8CFCE645ECD313780022E25410BD3D
:1008400010B584B08C4696461946D3B930238DF83E
:100850000430012211E0194BA3FB0143DB081C46C5
:1008600003EB8303A1EB4303303302F1100169442E
:1008700001F80C3C0132D2B2214689B1092AEAD9E9
:100880000EE00022F9E7013AD2B202F110036B4404
:1008900013F80C3C43549EF8003001338EF80030BE
:1008A00032B19EF800100CF1FF33DBB29942EAD36B
:1008B0009EF800300022C25404B010BDCDCCCCCC88
:1008C0000023034A1370034A1370034A13707047DE
:1008D000D3020020D2020020D402002000B5114B28
:1008E00093F800E0BEF12E0F1BD8734606E05A1EA7
:1008F0000D4911F802C001F803C0D3B20B4A1278B7
:100900009A42F4D3084B98540EF1010E5FFA8EFE12
:10091000044981F800E0013204490A70002203F81A
:100920000E2000BDD3020020D4020020D2020020FD
:1009300010B5044602E0FFF7D1FF0134207800280B
:10094000F9D110BD0D4B1B78BBB1013B5FFA83FCA5
:10095000624604E0531C0A49C85C8854DAB2094B69
:100960001B78013BDBB29342F4D8064A1370034A6A
:1009700082F800C0024A0021D1547047D202002000
:10098000D4020020D302002008B50023074A1370C8
:10099000074A1370074A0021116051609160064AAE
:1009A0001370064A1370FFF78BFF08BDCD020020BD
:1009B000CC020020C0020020AC02002098020020DF
:1009C0000B4B1A8892B20B4B1B889BB29A420DD0EC
:1009D000074A13889BB20849CB5C037013889BB20B
:1009E000013303F07F03138001207047002070471C
:1009F000120200201402002018020020002111E041
:100A000001EB01100C4A02442020D0540133DBB228
:100A10000F2BF5D901EB0112074B134400221A7476
:100A20000131C9B2012901D80023F1E70023034AAB
:100A30001370034A13707047F0010020EF0100208B
:100A4000EE010020002307E00849CA18507CC85472
:100A5000202151740133DBB20F2BF5D9044B012255
:100A60001A70044B00221A70704700BFF00100207A
:100A7000EF010020EE01002008B5064B1B7833B9CA
:100A8000044B01221A70044B00221A7008BDFFF7B4
:100A9000D9FFFBE7EF010020EE0100201F281BD942
:100AA00008B50E4B1978DFF838C09CF8003001EB20
:100AB000011E0C4A7244D0540133DBB28CF8003072
:100AC0000F2B05D929B9054B01221A708CF800109B
:100AD00008BDFFF7B7FFFBE7704700BFEF0100203D
:100AE000EE010020F001002030B58BB0252200215E
:100AF00068460AF00DFD1B4CEC46A646BEE80F000A
:100B0000ACE80F00DEF800308CF80030D4F81100AB
:100B1000D4F81510D4F81920D4F81D30CDF81100F0
:100B2000CDF81510CDF81920CDF81D3094F82130EE
:100B30008DF8213001238DF822300B4B1B788DF876
:100B400023300A4B1B780F2B28BF0F238DF824303E
:100B500000231A4669460648006806F034F90BB0CF
:100B600030BD00BFF0010020EF010020EE010020A9
:100B7000C006002000B583B004E0FFF77DFF0F4BF7
:100B800001221A700DF10700FFF71AFF40B19DF81E
:100B900007000A28F1D00D28F1D0FFF77FFFEEE71C
:100BA000074B1B7813B1054B1B780BB903B000BD85
:100BB000024B1870FFF798FFF8E700BFEC01002028
:100BC000ED01002008B5094B1B781BB1074B002233
:100BD0001A7008BDFFF712FF044B01221A70044B74
:100BE00000221A70FFF780FFF3E700BFED0100203D
:100BF000EC01002038B504460D460846FFF7B8FD65
:100C0000C0B2102804D8C0F11002D2B2002306E00E
:100C100000221020FAE72021E1540133DBB29A428E
:100C2000F9D8002306E0D11815F803C004F801C074
:100C30000133DBB29842F6D80023237438BD00009C
:100C40002DE9F04182B006460F4615462B4918465D
:100C5000FFF76CFB08F0DAFBFFF76AFD284BA3FBFC
:100C600000235B0B42F2107202FB13082A4639463E
:100C70003046FFF7E5FD0022144613E0214BA3FBAD
:100C80000813DB08194603EB8303A8EB4303303357
:100C900004F10800684400F8043C0134E4B28846DA
:100CA0000132D2B2032AE9D901E0013CE4B22CB10D
:100CB000E31D6B4413F8043C302BF6D014B902B09A
:100CC000BDE8F081104B2A4639463046FFF79EFDBD
:100CD0000AE0013CE4B204F108036B4413F8043C5D
:100CE000B3542B7801332B7024B12A787B1EDBB2EE
:100CF0009A42EED32B780022F254E0E700401C46E3
:100D00005917B7D1CDCCCCCCF4B50008F0B583B031
:100D100007460E46144600238DF80730114610464C
:100D2000FFF798FC20B346492046FFF7BBFC40BBC9
:100D300044492046FFF798FC58BB00212046FFF7A6
:100D400093FC70BB40492046FFF78EFC78BB002522
:100D50003E492046FFF79CFC002853D0252D51D852
:100D60003A492046FFF796FB04460135EDB2EFE71E
:100D7000374B0DF1070231463846FFF747FD03B008
:100D8000F0BD344B0DF1070231463846FFF73EFD0A
:100D9000F5E7314B0DF1070231463846FFF736FDD6
:100DA000EDE72E492046FFF77DFC90B10024204658
:100DB00008F02CFB2146FFF74DFCA0B12046FFF7C1
:100DC000B7FC03460DF1070231463846FFF738FD00
:100DD000D5E7234B0DF1070231463846FFF716FDE4
:100DE00004F10044AEE723460DF1070231463846D0
:100DF000FFF726FFC3E715492046FFF797FA044699
:100E0000013DEDB24FF07E512046FFF72DFC08B1B9
:100E1000002DF0D123460DF1070231463846FFF789
:100E20000FFF104B0DF1070231463846FFF7EEFC7D
:100E30002B460DF1070231463846FFF701FD9EE7CC
:100E40009976967E997696FE286B6E4E000020412C
:100E5000F8B50008FCB5000800B6000817B751B88F
:100E600008B6000848B7000870B584B004460D46BF
:100E7000CDE90023019E26F000402049FFF712FC37
:100E800030B9009A29462046FFF740FF04B070BDF4
:100E900000238DF80F302370009A29462046FFF773
:100EA00035FF2046FFF764FCC0B28DF80F006B1EC3
:100EB000DBB2984204D200213046FFF7E9FBA0B92B
:100EC0009DF80F00291A3246C9B22044FFF71EFFD1
:100ED0002046FFF74DFC8DF80F00094B0DF10F0276
:100EE00029462046FFF792FCD0E7064B0DF10F0292
:100EF00029462046FFF78AFCE2E700BFBD3786356A
:100F000010B600080CB6000800B587B0114802AB57
:100F1000009304AB82684168006801F092FB70B9ED
:100F200006AB13E90C0011210B48FFF79DFF02AB44
:100F30000CCB11210948FFF797FF07B000BD102225
:100F4000074905480AF0FEFA0023034A1374034ACE
:100F50001370F2E7C0020020AC02002098020020CB
:100F600014B600082DE9F04707468946924600244A
:100F700025460CE00322354930460AF0D1FA00BB81
:100F8000732309F804300134E4B20335EDB27E195D
:100F900017F80580B8F1000F52D00AF1FF33DBB229
:100FA000A3424DD904222A4930460AF0B9FA002852
:100FB000E0D1712309F804300134E4B20435EDB214
:100FC000E5E70322234930460AF0AAFA38B9632339
:100FD00009F804300134E4B20335EDB2D7E7032257
:100FE0001D4930460AF09CFA38B9742309F80430D8
:100FF0000134E4B20335EDB2C9E7032217493046A4
:101000000AF08EFA38B96C2309F804300134E4B2DE
:101010000335EDB2BBE70222114930460AF080FAEF
:1010200038B96E2309F804300134E4B20235EDB268
:10103000ADE709F804800134E4B20135EDB2A6E76A
:10104000002309F80430BDE8F08700BF24B600088B
:101050001CB6000828B600082CB6000830B60008F8
:1010600034B6000830B591B0154B1C7814B9204641
:1010700011B030BD054604AC302221461148FFF7BF
:1010800071FF0023029303930F4B02AA01925A6847
:1010900000921B6800220D490978204601F069FA88
:1010A000044658B9039820F000400949FFF7FAFABE
:1010B0000028DCD1029B2B600124D8E70024D6E76E
:1010C000D3020020D402002004030020CF0200201D
:1010D000BD3786352DE9F04106460F46904600247F
:1010E000147025460FE088F8005018E0042373556B
:1010F0000135EDB21C44E4B205E00323735501351C
:10110000EDB20134E4B21A4B1B78A34223D97A1E04
:10111000D2B2AA421FD9174A1278A242E3D01B1BAF
:10112000DBB2032B07D904221349144820440AF0E8
:10113000F7F90028DAD0114B1B5D2F2BDDD0702B77
:1011400004D02A2B05D102237355D8E70123735508
:10115000D5E77355D3E7074B1B78A34204D0002390
:1011600073552846BDE8F08188F80050F7E700BFC6
:10117000D3020020D20200201CB60008D4020020B6
:1011800030B58FB005460C460DF10702302102A89C
:10119000FFF7A0FFC4F1100E5FFA8EFEC4F10F023C
:1011A000D2B29DF807309A420BD2A4F1100203EBA1
:1011B000020C5FFA8CFC0CF1010C5FFA8CFC2346EC
:1011C00006E04FF0000CFAE72022EA540133DBB2CC
:1011D0000F2BF9D9002301E00133DBB273450CD2A8
:1011E0000CEB0302D2B29042F6D91919C9B23832C7
:1011F0006A4412F8302C6A54EEE700232B749DF8F1
:101200000730E018C0B2A0EB0C00C0B20FB030BD88
:1012100030B58BB005462522002168460AF078F9E2
:1012200000216846FFF7ACFF29460DF11100FFF7DA
:10123000E1FC00228DF8222013466946024800682E
:1012400005F0C1FD0BB030BDC006002000B58BB06D
:101250002522002168460AF05BF91C4B1B78A3B1DC
:101260001B496846FFF7C6FC1A490DF11100FFF74C
:10127000C1FC00238DF8223000231A466946164827
:10128000006805F0A0FD0BB000BD144B1B78613366
:101290008DF800303D238DF8013002216846FFF7BC
:1012A0006FFF8DF824000E4B03CBCDF81100CDF865
:1012B00015101B88ADF8193000238DF81B30012262
:1012C0008DF822208DF82330D6E700BFCC02002015
:1012D000AC02002098020020C0060020CD020020B1
:1012E00038B6000810B58AB02522002168460AF0F9
:1012F0000FF900216846FFF743FF84461D4B03CBDF
:10130000CDF81100CDF815101B88ADF819301A4B27
:101310001B7863B320238DF81B3043238DF81C30DA
:101320000C23164A12786AB103F128026A4420217C
:1013300002F8171C03F129026A44052102F8171C60
:101340000233DBB228330DEB0301002201F8172C26
:1013500001238DF822308DF823208DF824C0134608
:1013600069460748006805F02EFD0AB010BD0A2343
:10137000D7E700BF44B60008D0020020D102002009
:10138000C006002010B504460F4BB3F800E01FFA6A
:101390008EFE002206E014F802C00C4800F80EC0D1
:1013A00001329E468A420AD20EF1010303F07F0306
:1013B0000748B0F800C01FFA8CFC9C45EBD1024BEB
:1013C000A3F800E010BD00BF1402002018020020A6
:1013D0001202002008B5164A0121082005F0A4FCDD
:1013E000144B1860144A3221022005F09DFC134B67
:1013F0001860134A2521022005F096FC114B186055
:101400000023114A1370114A1370114A1370114AC4
:101410001370114A1370114A1370114A1380114A44
:101420001380FFF7EBFAFFF7AFFAFFF749FA08BDB1
:101430007CB70008C806002064B70008C406002076
:101440004CB70008C0060020CF020020D0020020C8
:10145000D1020020CE020020ED010020EC0100208E
:10146000140200201202002010B5002408E04FF4FE
:101470000051074801F01EFF00240A2005F047FC38
:10148000FFF778FB0134A4B2312CF0D8F5E700BFA8
:101490000010014030B583B001F0FEFA154807F0A6
:1014A00049FD154807F09CFD002503E00A2005F0E2
:1014B0002EFC254601F0F6FA01460E4C204607F0B8
:1014C00046FD216A0C4807F099FD04460028EDD03E
:1014D000002DEBD101F01CFB8DF807001D28E5D88D
:1014E0002B462A460DF107010448006805F06BFC05
:1014F000DCE700BF940600200C030020C806002093
:1015000000B58FB0FFF7EEFEB4E0954A1070954A33
:101510001070FFF7E7FEADE0934B1A78002A00F059
:1015200091809DF837301A2B34D0002B40D08F4A51
:101530001278B2B11D2B00F09D80042B00F09A8030
:101540000D2B00F09780012B00F094800E2B00F003
:101550009180072B00F08E80092B00F08B80FFF725
:1015600013FA9DF83730092B5BD028D90E2B48D0C1
:101570001D2B2DD00D2B28D01D2B44D8784A127846
:10158000002A58D07A4A52F82300002853D0FFF797
:10159000CFF938E0724A1278002AC6D00023704A88
:1015A0001370714A1370FFF7EFF9FFF79BFE61E0CC
:1015B0006B4A127802B90123694A13705AE0042B6E
:1015C00006D0072B25D0012BD6D1FFF7BBF91AE0A7
:1015D0000023019301A8FFF745FDA0B1654C2378D6
:1015E000654A019942F8231001332370FFF768F927
:1015F0002378022B07D9FFF787FC5C4B01221A7076
:1016000001E0FFF75DF9564B00221A70FFF71EFE4E
:1016100030E05A4B1B78002BF5D0013B574A137032
:10162000F1E7564B1B78564A12789342EBD20133BE
:10163000524A1370E7E7534AD05C0028E3D0FFF723
:101640004DF9E0E79DF837300D2B78D046D8042BC4
:1016500067D031D8012B72D0022B00F09980002B7B
:1016600040F0D7803E4A127802B901233C4A1370F9
:10167000FFF738FE4FF0FF3300220DF137014248EB
:10168000006805F0E1FB0028F4D1364B1B78002BF5
:101690003FF442AF9DF83730192B04D1304A12780D
:1016A000002A7FF432AF002BE4D12D4A127802B920
:1016B00001232B4A1370DDE7072B46D0092B40F09E
:1016C000A8802E4B1B782E4A1278934202D2013307
:1016D0002A4A1370224B00221A70C9E71A2B7CD0B9
:1016E00011D80E2B25D0192B40F093801C4A12786C
:1016F000002A40F08880234AD05CFFF7EFF8184BAF
:1017000000221A70B4E71C2B09D1204A1378B3FACF
:1017100083F35B091370124B00221A70A8E71D2B8C
:1017200077D1174B1B78002B3CD10D4B00221A7040
:101730009EE7FFF7C5F80A4B00221A7098E7FFF7FB
:1017400001F9074B00221A7092E70C4B1B7813B17A
:10175000013B0A4A1370024B00221A7088E700BF4F
:10176000D1020020ED010020CE020020CC0200209A
:1017700048B80008CD020020C0020020D20200209C
:10178000D302002000B90008C8060020CF020020C4
:101790002B4B1B7803B90122294B1A70294B0022CD
:1017A0001A7065E701AC32220021204609F0B0FE34
:1017B000302221462448FFF7D5FB244B1B788DF8B7
:1017C00034301F4B1B788DF8353000231A462146E4
:1017D0001F48006805F0F7FAA7E71A4A12783AB9E5
:1017E0001C4AD05CFFF77AF8164B00221A703FE7CC
:1017F000144B00221A70184B01221A70FFF7C4F81C
:10180000FFF724FD36E70F4B00221A70FFF7DAF9D5
:1018100030E71D2B3FF62CAF0A4A127832B10F4A3F
:1018200052F8230028B1FFF783F802E0094AD05CA0
:1018300018B9044B00221A701AE7FFF74FF8F8E7BF
:10184000D0020020D1020020D4020020CF020020CC
:10185000C406002000B90008CE02002048B80008E5
:1018600000B599B01DE0012805D0022807D0032853
:1018700007D0214800E02148FFF7CAFC11E02048CA
:10188000FAE72048F8E7049A112106A8FFF73EFA84
:101890001D4B04AA92E8030083E8030006A8FFF7A3
:1018A000B7FC4FF0FF3300220BA91848006805F081
:1018B000CBFA0028F5D1144B1A6802925B680393A7
:1018C00000230493059304AB0193039B0093029BB5
:1018D0009DF85D209DF85C100BA800F04AFE0028E2
:1018E000C1D19DF85D30002BCDD004AB0CCB1121C4
:1018F00006A8FFF7B9FACBE768B6000850B60008AB
:101900005CB6000870B6000804030020C40600207E
:1019100000B58DB001F0FAF90D490E4801F028FA32
:101920004FF0FF33002202A90B48006805F08CFA43
:101930000028F5D19DF82C3000939DF82B309DF8B0
:101940002A200DF1190102A801F022FAE8E700BFF0
:1019500044B600087CB60008C006002070B50446F6
:101960000E46154600213046FEF774FE00B10026F3
:10197000266000212846FEF76DFE00B10025656057
:10198000204670BD82B030B583B0044602A800E99D
:101990000600079308990198FEF7C0FB05460799D2
:1019A0000098FEF7BBFB01462A462046FFF7D6FF0C
:1019B000204603B0BDE8304002B0704782B030B579
:1019C00083B0044602A800E906000793089901982D
:1019D000FEF7A2FB054607990098FEF79DFB01461E
:1019E0002A462046FFF7BAFF204603B0BDE8304044
:1019F00002B0704710B582B0044602AB03E906009E
:101A0000019A02F10042009901F10041FFF7A6FF9F
:101A1000204602B010BD82B02DE9F04782B080466A
:101A200002A800E906000B93009E0B9C214630465D
:101A3000FEF77CFC8246019D0C9F39462846FEF746
:101A400075FC814639463046FEF770FC064629464D
:101A50002046FEF76BFC01463046FEF75FFB04466E
:101A600049465046FEF758FB014622464046FFF7DE
:101A700075FF404602B0BDE8F04702B0704782B043
:101A80002DE9F04782B0814602A800E906000B93D9
:101A90000B9D29462846FEF749FC06460C9C21462C
:101AA0002046FEF743FC01463046FEF737FB8246F0
:101AB0000021FEF7CFFD00282FD1009E3146284699
:101AC000FEF734FC8046019F39462046FEF72EFC87
:101AD00001464046FEF722FB804639462846FEF77F
:101AE00025FC054631462046FEF720FC01462846E7
:101AF000FEF712FB5146FEF7CDFC04465146404628
:101B0000FEF7C8FC014622464846FFF727FF484635
:101B100002B0BDE8F04702B070470D9B03221A7077
:101B200000210A464846FFF719FFF0E7026883885C
:101B3000D05C704710B5044602E0A3880133A3804F
:101B40002046FFF7F3FF2028F7D010BD10B582B074
:101B5000044602A800E906003BB908490098FEF7D0
:101B6000E5FB0749FEF796FC009002AB13E9030082
:101B700084E80300204602B010BD00BFDB0F4940DF
:101B80000000344373280DD063280DD074280DD085
:101B90006C280DD06E280DD0712801D00020704720
:101BA00001207047012070470120704701207047D5
:101BB00001207047012070472DE9F84381460D460A
:101BC000002610E04E493046FEF7B0FB0646A4F171
:101BD0003000FEF757FB01463046FEF79FFA0646F7
:101BE000AB880133AB802846FFF7A0FF04462F28BF
:101BF00001D93928E6D92E2C1BD04FF07E57284624
:101C0000FFF794FF452860D1AC88631CAB80284661
:101C1000FFF78CFF2B2831D02D2833D00124284604
:101C2000FFF784FF2F2832D9392830D84FF0000829
:101C300038E0AB880133AB804FF07E5715E0304978
:101C40003046FEF773FB0646A4F13000FEF71AFBA0
:101C500001463046FEF762FA064629493846FEF745
:101C600065FB0746AB880133AB802846FFF75EFF74
:101C700004462F28C3D93928E1D9C0E70234AC8003
:101C80000124CCE70234AC804FF0FF34C7E70123D6
:101C90002B7500210A464846FFF760FE2CE0AB8812
:101CA0000133AB802846FFF741FF2F280AD9392896
:101CB00008D8B8F1630FF2DC08EB8808303800EB85
:101CC0004808ECE704FB08F801E04FF0000839464B
:101CD0003046FEF7DFFB04464046FEF7D3FA0146E6
:101CE000074807F03DFA01462046FEF71FFB014674
:101CF00000224846FFF732FE4846BDE8F88300BFA1
:101D00000000204110B507F0BDF9044601464FF030
:101D10007E50FEF7BFFB2146FEF700FA4FF07C51E4
:101D2000FEF704FB10BD10B507F0ACF90446014600
:101D30004FF07E50FEF7AEFB01462046FEF7ECF971
:101D40004FF07C51FEF7F2FA10BDF0B583B00646B5
:101D500002AB03E90600009D284607F0A5FA0746F6
:101D6000019C2046FFF7CEFF01463846FEF7DEFA1B
:101D70000746284607F066FA05462046FFF7D3FFD8
:101D800001462846FEF7D2FA024639463046FFF7AA
:101D9000E5FD304603B0F0BDF0B583B0064602ABBA
:101DA00003E90600009D284607F04CFA0746019C0F
:101DB0002046FFF7A7FF01463846FEF7B7FA074669
:101DC000284607F071FA00F100452046FFF7ABFF07
:101DD00001462846FEF7AAFA024639463046FFF782
:101DE000BDFD304603B0F0BDF0B583B0054602AB93
:101DF00003E90600009807F045F90646019C2046D5
:101E000007F020FA0746204607F04EFA3146FEF763
:101E10008DFA044631463846FEF788FA01462246D6
:101E20002846FFF79BFD284603B0F0BDF0B583B010
:101E3000074602A800E906001D46009C0021204636
:101E4000FEF708FC20B100210198FEF703FC98B9C9
:101E5000019D2946204607F03DF907F057F906464F
:101E60002146284607F00CF9024631463846FFF76E
:101E700075FD384603B0F0BD02232B7000210A46E1
:101E80003846FFF76BFDF4E782B02DE9F04188B0EA
:101E9000064602A880E806000F93039C0021204616
:101EA000FEF7D8FB58B100211098FEF7D3FB30B1F4
:101EB000029B1D4600211846FEF7F4FB40BB0021A3
:101EC0002046FEF7C7FB58B100211098FEF7C2FB71
:101ED00030B1029B1F4600211846FEF7C5FB08BB28
:101EE00000210298FEF7B6FB002848D000212046CA
:101EF000FEF7B0FB002842D000210F98FEF7D2FB7E
:101F0000002833D000210A463046FFF727FD44E081
:101F10000F99284607F024F9014600223046FFF7C2
:101F20001DFD3AE00F9D25F000402649FEF79CFB81
:101F30000028D5D02846FEF7D5FB8046FEF7A2F94B
:101F400001462846FEF786FB0028C9D007F100406D
:101F5000294607F005F9014618F0010F01D000F1FC
:101F6000004100223046FFF7F9FC16E00323119AE6
:101F7000137000210A463046FFF7F0FC0DE0119B7C
:101F800002AA06CA04A8FFF751FF119B1B7853B1A0
:101F900000210A463046FFF7E1FC304608B0BDE8B4
:101FA000F04102B0704706AC059B0093049B0FAA5A
:101FB00006CA2046FFF72FFD94E806003046FFF7DB
:101FC00013FFEAE7286B6E4E2DE9F04182B08046A0
:101FD00002AB03E90600009C019D2946204607F05C
:101FE00079F8064601462046FEF798F84FF07C51F6
:101FF000FEF79CF907F008F9074621463046FEF740
:102000008BF84FF07C51FEF791F907F0FDF804468C
:1020100000212846FEF728FB40B9224639464046B3
:10202000FFF79CFC404602B0BDE8F08104F100439C
:102030001C46F2E782B030B593B005460C461793C4
:10204000712A00F0978013D86C2A68D06E2A4AD083
:10205000632A40F0AA800B7A17AA06CA08A8FFF7DD
:1020600075FD08AB93E806002846FFF795FE34E0BF
:10207000732A26D0742A40F098800B7A17AA06CAD1
:102080000AA8FFF763FD0AAB93E8060002A8FFF772
:102090005CFE237A17AA06CA0CA8FFF757FD0CAB03
:1020A00093E8060004A8FFF777FE04F114030193F8
:1020B000059B0093049B02AA06CA2846FFF7DFFC93
:1020C0000BE00B7A17AA06CA06A8FFF73FFD06AB7E
:1020D00093E806002846FFF738FE284613B0BDE80F
:1020E000304002B070474B7A4BB900211898FEF788
:1020F000B1FA20B100211798FEF7C0FA38B923468B
:10210000143317AA06CA2846FFF790FEE5E7022314
:10211000237500210A462846FFF720FCDDE74B7AAD
:102120004BB900211898FEF795FA20B100211798B5
:10213000FEF7A4FAB0B9234614331C4617AA06CA00
:102140000EA8FFF773FE00221C4910A8FFF706FC3B
:102150000194119B0093109B0EAA06CA2846FFF714
:102160008EFCBAE70223237500210A462846FFF7B2
:10217000F5FBB2E74B7A4BB900211898FEF76AFAE3
:1021800020B100211798FEF76FFA30B917AB93E82A
:1021900006002846FFF718FF9FE70223237500215A
:1021A0000A462846FFF7DAFB97E70123237500214B
:1021B0000A462846FFF7D2FB8FE700BF8E5D13402B
:1021C00070B586B006460C4600210A4604A8FFF703
:1021D000C5FB2046FFF7AEFC2046FFF7A7FC2828EA
:1021E0001BD00546A0F13003DBB2092B53D92E28B2
:1021F00051D0702856D065285DD0692864D0412818
:1022000076D0FFF7BFFC00287BD101232375002186
:102210000A463046FFF7A2FB41E0A3880133A380C2
:10222000E3880B2B07D90123237500210A4630468A
:10223000FFF794FB33E00133E38002AD21462846EB
:1022400000F049F995E8030006AB03E90300E388D1
:10225000013BE380237D2BB100210A463046FFF786
:102260007DFB1CE02046FFF765FC2046FFF75EFC87
:10227000292807D00123237500210A463046FFF79D
:102280006DFB0CE0A3880133A38006AB13E90300C8
:10229000C6E9000103E021463046FFF78DFC3046D9
:1022A00006B070BDA3880133A38000222D493046BB
:1022B000FFF754FBF3E7A3880133A38000222A49E8
:1022C0003046FFF74BFBEAE7A3880133A380637A2C
:1022D0003BB90123237500210A463046FFF73EFB38
:1022E000DDE74FF07E5200213046FFF737FBD6E79F
:1022F000A3880133A3800C3494E80300C6E90001ED
:10230000CDE7A3880133A3802046FFF713FCE388C1
:102310000B2B07D90123237500210A463046FFF70E
:102320001DFBBCE70133E380214602A8FFF748FF0D
:1023300002AB93E8030006AB03E90300E388013B2B
:10234000E380237D2BB100210A463046FFF706FBD0
:10235000A5E7059B0093049B2A4621463046FFF7DC
:1023600069FE9CE7DB0F494054F82D4030B587B03B
:1023700005460C4604A8FFF723FF237D3BB100214F
:102380000A462846FFF7EAFA284607B030BD20463D
:10239000FFF7D0FB2046FFF7C9FB5E2805D006AB50
:1023A00013E90300C5E90001EEE7A3880133A38028
:1023B000214602A800F014F8237D2BB100210A4623
:1023C0002846FFF7CBFADFE714340194039B009310
:1023D000029B06AA12E906002846FFF755FDD3E73F
:1023E00030B583B005460C460846FFF7A3FB2046F0
:1023F000FFF79CFB2D2808D02B2813D02146284618
:10240000FFF7B4FF284603B030BDA3880133A38093
:1024100021466846FFF7E4FF9DE806002846FFF7DF
:10242000E9FAEFE7A3880133A38021462846FFF7A6
:10243000D7FFE7E7F0B58BB007460C4604A8FFF7D7
:10244000CFFF1CE000210A463846FFF787FA3846DE
:102450000BB0F0BDA3880133A380214606A8FFF787
:10246000BFFF02AE079B0093069B04AD95E80600F4
:102470003046FFF7D0FA96E8030085E80300237D95
:10248000002BDFD12046FFF755FB2046FFF74EFB20
:102490002A28DFD02F2818D1A3880133A380214612
:1024A00008A8FFF79DFF02AE04F114030193099BF6
:1024B0000093089B04AD95E806003046FFF7DFFA6D
:1024C00096E8030085E80300D9E704AB93E803002E
:1024D000C7E90001BBE7F0B58BB007460C4604A87E
:1024E000FFF7A8FF1CE000210A463846FFF736FA3E
:1024F00038460BB0F0BDA3880133A380214606A85F
:10250000FFF798FF02AE079B0093069B04AD95E88A
:1025100006003046FFF736FA96E8030085E8030028
:10252000237D002BDFD12046FFF704FB2046FFF779
:10253000FDFA2B28DFD02D2815D1A3880133A380E5
:10254000214608A8FFF776FF02AE099B0093089B7F
:1025500004AD95E806003046FFF730FA96E8030030
:1025600085E80300DCE704AB93E80300C7E900015A
:10257000BEE782B030B589B00D930F9B002B3BD0E6
:10258000154600230F9C23606360002836D002901C
:102590000023ADF80C30ADF80E308DF810108DF82A
:1025A000112005AB0DAA92E8030083E803004FF069
:1025B00000038DF81C3002A96846FFF78CFF9DF8D8
:1025C0001C402CB1204609B0BDE8304002B0704735
:1025D00002A8FFF7AFFABDF80C30029AD45C7CB9C0
:1025E00025B900210198FEF735F858B1DDE9000161
:1025F0000F9B83E80300E5E70124E3E70124E1E71B
:102600000124DFE70224DDE7CAB170B505460C46B8
:10261000164600211160FEF71DF838B904F100409C
:102620002946FDF737FF3060002070BD00212046AD
:10263000FEF710F808B10020F7E70220F5E70120C7
:1026400070472DE9F04784B0002B00F0DA80074690
:10265000884691461E469A460C9A002A00F0D3807E
:1026600000252A4629466846FFF778F9DDE900018A
:1026700086E803002A4629466846FFF76FF9DDE938
:1026800000010C9B83E8030029463846FDF7E2FF72
:1026900000284DD1464641464046FDF747FE0446D8
:1026A0004FF081413846FDF741FE4946FDF73EFEB9
:1026B00001462046FDF730FD04460021FDF7E8FF06
:1026C000002868D0204606F09FFD80463146FDF781
:1026D00023FD054639463846FDF720FD04460146F0
:1026E0002846FDF7D7FE054606F100404146FDF7B6
:1026F00013FD2146FDF7CEFE064601462846FDF7AE
:10270000C7FF002832D0002229466846FFF726F985
:10271000DDE90001CAE90001002231466846FFF701
:102720001DF9DDE900010C9B83E80300002461E052
:10273000039503AA49464046FFF766FF0446002872
:1027400058D1039E002231466846FFF707F9DDE9BC
:102750000001CAE90001002231466846FFF7FEF891
:10276000DDE900010C9B83E8030043E000223146D1
:102770006846FFF7F3F8DDE90001CAE9000100222D
:1027800029466846FFF7EAF8DDE900010C9B83E87B
:10279000030000242EE004F1004006F035FD06465B
:1027A00008F1004439463846FDF7B8FC05460146B5
:1027B0002046FDF76FFE074629463046FDF76AFEC4
:1027C00004460021FDF750FFC0B92246394668464D
:1027D000FFF7C4F8DDE90001CAE9000104F1004295
:1027E00039466846FFF7BAF8DDE900010C9B83E83B
:1027F00003000024204604B0BDE8F08704F1004443
:10280000E3E70124F6E70124F4E708B506F048FA07
:10281000FEF72AFE08BD08B5FEF73CFE08BD08B568
:10282000FFF776F808BD08B5FFF71AF808BD08B538
:10283000FEF766FE08BD704708B5FEF7CBFD124AED
:102840000021124804F002FA114B1860114A0021CD
:10285000114804F0FBF9114B1860114A002111488E
:1028600004F0F4F9104B1860104A0021104804F0ED
:10287000EDF9104B1860104A0021104804F0E6F9F9
:102880000F4B186008BD00BF24B800080B280008D3
:10289000501F002000B8000817280008F01A002078
:1028A000DCB700081F28000890180020B8B70008FF
:1028B000272800083015002094B700082F280008AA
:1028C000D00C00202DE9F04389B004AD002404941D
:1028D0000594069407942F4B9A6942F010029A616E
:1028E0009A6902F010020092009A9A6942F020025E
:1028F0009A619A6902F020020192019A9A6942F063
:1029000008029A619A6902F008020292029A9A6990
:1029100042F004029A619B6903F004030393039B52
:10292000DFF8749001224FF40051484600F0BCFCDF
:102930001A4E22464FF47C41304600F0B5FC01228D
:102940004FF4A071304600F0AFFC4FF400530493F5
:102950004FF00108CDF81480069402270797294606
:10296000484600F0AFFB4FF640530493CDF8148077
:10297000069407972946304600F0A4FB4FF42073D5
:102980000493059406942946304600F09BFB09B059
:10299000BDE8F0830010024000100140000C01402F
:1029A000074AD2F8FC3043F08073C2F8FC30054B84
:1029B00000225A601A6842F001021A60704700BF94
:1029C00000ED00E0001000E0074B1B68074AA2FB87
:1029D00003239B0C03FB00F0054B5A68044B5B6818
:1029E0009B1A8342FAD370470000002083DE1B430A
:1029F000001000E02DE9F8430746884616460024FB
:102A0000A14606E00D4B1F613046FFF7DDFF0134A4
:102A1000E4B20F2C0FD83B04084D2B613046FFF772
:102A2000D3FFAB6818EA030FECD10123A3409BB29C
:102A300043EA0909E6E74846BDE8F883000C01408F
:102A400008B50422FFF7D6FF08BD0000F0B585B039
:102A5000002400940194029403940E4E01224FF43A
:102A6000A071304600F020FC4FF4A07300930127C2
:102A70000197029403976946304600F023FB4FF418
:102A800020730093019402976946304600F01AFBC8
:102A900005B0F0BD000C014008B5FFF781FFFFF75E
:102AA000D5FF08BD10B580214020FFF7C9FF0446BF
:102AB0004FF400714FF48070FFF7C2FF844600238B
:102AC00018460EE04CFA02F111F0010F07D00E4942
:102AD0008A5C1D2A03D8012101FA02F21043013356
:102AE000DBB20F2B0FD81A4644FA03F111F0010F95
:102AF000E8D00649C95C1D29E4D84FF0010E0EFA52
:102B000001F10843DEE710BD20B9000830B9000824
:102B1000024600201D2807D822FA00F313F0010F07
:102B200003D10130C0B2F5E7FF20704708B5026855
:102B3000034B9A4200D008BD00F036FAFBE700BF15
:102B40000008004072B6FEE710B594B00AAC282227
:102B50000021204608F0DCFC002305930693079330
:102B600008930993019302930393049301220A9219
:102B70004FF480330B930E920222119212934FF472
:102B8000E0131393204601F0DDFBA8B90F23059352
:102B90000221069107904FF480620892099005A8DF
:102BA00001F004FE50B910230193049001A801F034
:102BB000E7FE28B914B010BDFFF7C4FFFFF7C2FF4E
:102BC000FFF7C0FF08B500F0DDF9FFF7BDFFFFF725
:102BD00079FE00F08BF9054801F092FF04F006F849
:102BE000FFF72AFE04F014F8FEE700BF9C1F002048
:102BF000034B1A6800235362536A8342FCD3704725
:102C00009C1F0020000380B240F07040014B18610F
:102C1000704700BF000C014020B14FF48062034BAD
:102C20001A6170474FF08062F9E700BF000C014065
:102C300010B5074C4FF4006323610220FFF7D8FF63
:102C40004FF0006323610220FFF7D2FF10BD00BFE9
:102C5000000C014008B5FFF7D5FFFFF7E9FF08BDFD
:102C600010B504460846FFF7D7FF2009FFF7F2FF2B
:102C700004F00F00FFF7EEFF3220FFF7B9FF10BDA1
:102C800008B50121FFF7ECFF08BD38B50546002463
:102C900003E0FFF7F5FF0134E4B20F2C04D8285D00
:102CA0000028F6D12020F4E738BD10B504460021F5
:102CB000FFF7D6FF601EC0B2012800D910BD022068
:102CC00000F084F9FAE7000070B500250CE00E4B27
:102CD00003EBC503185D00F01F00FFF7D1FF0134BF
:102CE000E4B2072CF3D93546042D09D86E1CF6B290
:102CF000F000C0B240F04000FFF7D7FF0024F0E73B
:102D00008020FFF7D2FF70BD40B9000808B5174B0F
:102D10004FF07C421A61322000F058F90320FFF78F
:102D200099FF052000F052F90320FFF793FF96204A
:102D3000FFF75EFF0320FFF78DFF9620FFF758FF98
:102D40000220FFF787FF2820FFF7AFFF0820FFF7DB
:102D5000ACFF0120FFF7A9FF0620FFF7A6FF0C201C
:102D6000FFF7A3FFFFF7B0FF08BD00BF000C014055
:102D700038B505460C468020FFF797FF2846FFF739
:102D800084FFC020FFF791FF2046FFF77EFF38BD8C
:102D900038B5144683B1C0231D46FFF7E9FF74B16F
:102DA0009DF8100000F00F002844C0B2FFF77DFF2F
:102DB0000E20FFF77AFF38BD80231D46EDE70C207B
:102DC000FFF773FFF7E7000000B583B0104B9A6977
:102DD00042F001029A619A6902F001020092009A9F
:102DE000DA6942F08052DA61DB6903F080530193C3
:102DF000019B00220F216FF0010000F045F9054A08
:102E0000536823F0E06343F00073536003B000BDE8
:102E1000001002400000014030B589B00446224B4A
:102E2000DA6942F00402DA61DB6903F0040301931A
:102E3000019B02A903A801F085FD069BCBB901F017
:102E400071FD0346194AA2FB03239B0C013B184862
:102E5000184A026040F2E732C26043600023036117
:102E60008360836101F0A2FF054630B1284609B0B6
:102E700030BD01F057FD4300E4E70D4801F06EFE60
:102E800005460028F2D11E2000F00EF90F2C02D9C1
:102E900001231D46EAE7002221461E2000F0F4F837
:102EA000054B1C60E2E700BF0010024083DE1B43BD
:102EB000541F00200008004008000020FEE7FEE745
:102EC000FEE7FEE7FEE7704708B5024800F0EDFFB9
:102ED00008BD00BF6035002008B5024801F074FE4F
:102EE00008BD00BF541F00207047000000B587B028
:102EF00000230293039304930593009301931448D2
:102F0000144A02604722426083604FF6FF72C2603B
:102F10000361836101F04AFF88B94FF48053029343
:102F200002A90B4801F079FF60B9002300930193D7
:102F30006946074801F0F0FF38B907B000BDFFF758
:102F400001FEEAE7FFF7FEFDEFE7FFF7FBFDF4E721
:102F50009C1F0020000400400268094B9A4200D0E8
:102F6000704782B003F50333DA6942F00202DA6196
:102F7000DB6903F002030193019B02B0704700BFBD
:102F80000004004008B5074A136843F010031360BB
:102F9000032000F067F80F20FFF73EFFFFF714FF54
:102FA000002008BD00200240034A1168034B1B7833
:102FB0000B441360704700BFE41F00200400002092
:102FC000014B1868704700BFE41F002038B5044665
:102FD000FFF7F6FF0546B4F1FF3F02D0044B1B7824
:102FE0001C44FFF7EDFF401BA042FAD338BD00BFE1
:102FF00004000020002808DB0901C9B200F160408C
:1030000000F5614080F80013704700F00F000901DF
:10301000C9B2014B1954704714ED00E000B500F03F
:103020000700A0F1030CBCF1040F07D8C0F1070E94
:103030000430062806D84FF0000C03E04FF0040ED1
:103040004FF0000C4FF0FF3303FA0EF021EA0001BD
:1030500001FA0CF103FA0CF322EA030241EA02003E
:1030600000BD0000074AD36823F4E0631B041B0C77
:10307000000200F4E060034343F0BF6343F4003315
:10308000D360704700ED00E010B50446054BD868EA
:10309000C0F30220FFF7C2FF01462046FFF7AAFF58
:1030A00010BD00BF00ED00E0002807DB00F01F02AC
:1030B000400901239340024A42F82030704700BF84
:1030C00000E100E070B582B04FF0000EF446A4E0DD
:1030D000012B28D0022B03D1CB6803F1080E24E08A
:1030E0001BBB8B68002B65D0012B5CD042614FF07D
:1030F000080E1AE0664DAB42F3D00CD8A5F580154A
:10310000AB42EED005F57025AB42EAD0A5F58015AF
:10311000AB42E6D009E05F4DAB42E2D005F5803529
:10312000AB42DED001E0D1F80CE0FF2C45D80646DA
:103130004FEA8C0233680F25954023EA05030EFA07
:1031400002F2134333604B6813F0805F63D0524B3D
:103150009A6942F001029A619B6903F001030193AD
:10316000019B4FEA9C02951C4C4B53F825600CF0D8
:103170000305AD000F23AB4026EA0306484B9842F7
:1031800022D003F58063984263D003F580639842B0
:1031900061D003F58063984214D0042315E0CB6816
:1031A00003F10C0EC1E702614FF0080EBDE74FF0CE
:1031B000000EBAE74FF0040EB7E7061DACF10802A7
:1031C0009200B7E7032300E00023AB403343023211
:1031D000324D45F822304B6813F4801F3DD0314A00
:1031E0009368234393604B6813F4001F3BD02D4A30
:1031F000D3682343D3604B6813F4003F39D0294A86
:103200005368234353604B6813F4803F37D0254AFB
:103210001368234313600CF1010C0B6833FA0CF2B2
:1032200033D0012202FA0CF203EA020432EA030369
:10323000F1D14B68032BBAD07FF64AAF122BAED038
:103240003FF658AF112B7FF470AFCB6803F1040E3B
:103250006BE70123B9E70223B7E7124A936823EA31
:1032600004039360BFE70F4AD36823EA0403D360E3
:10327000C1E70C4A536823EA04035360C3E7094AD1
:10328000136823EA04031360C5E702B070BD00BFF2
:103290000000221000003110001002400000014028
:1032A00000080140000401400AB1016170470904AF
:1032B00001617047C36801EA030221EA030141EAA0
:1032C00002410161704710B512F4804F46D0046886
:1032D000B4F850309BB291F800C003EBCC0302333A
:1032E00004EB4304B4F80044C4F309048B69A3421B
:1032F0002AD31B1B8B618B6983B9D0F800E03EF8A1
:103300002C309BB223F4804323F0700383F40053EA
:1033100043F4004343F080032EF82C3012F0400FAA
:103320000FD0026891F800C032F82C309BB223F421
:10333000E04323F0700343F4004343F0C00322F85A
:103340002C3024B9204610BD00238B61D3E72346DF
:103350000A894969006802F0B3FDF3E70468B4F82C
:1033600050309BB291F800C003EBCC03063304EB62
:103370004304B4F80044C4F309048B69A34230D376
:103380001B1B8B618B6983B9D0F800E03EF82C30B1
:103390009BB223F4804323F0700383F4005343F47F
:1033A000004343F080032EF82C3012F0400F0FD171
:1033B000026891F800C032F82C309BB223F4E0434D
:1033C00023F0700343F4004343F0C00322F82C3091
:1033D000002CB7D023464A894969006802F070FD85
:1033E000B0E700238B61CDE738B5002870D00446E4
:1033F00090F89132ABB1032384F8913200236371CA
:10340000206801F0D1FD234653F8040B0ECB01F0E8
:10341000BBFD58B1022384F8913201231D46284692
:1034200038BD80F8903205F071FCE4E70146206871
:1034300001F0C5FD0346A8B902462079904217D98C
:1034400002EB820104EBC101012048740A740020E0
:10345000C87408624862013202EB8201C900605000
:10346000D2B2EAE7022384F8913201231D46D6E75F
:10347000984217D903EB830204EBC202002182F8C1
:10348000511182F8503182F85311C2F86011C2F81C
:10349000641103EB830204EBC202C2F8681101332A
:1034A000DBB2E5E7234653F8040B0ECB01F089FDB0
:1034B000054628B1022384F8913201231D46AEE768
:1034C0006073012384F89132206802F0F2F8A6E7D5
:1034D00001231D46A3E790F89032012B13D010B5BD
:1034E00004464FF0010380F89032006801F053FD6C
:1034F0000121204605F01DFD206802F0D8F80020CB
:1035000084F8900210BD0220704770B505460C4645
:10351000164612F0400F00F00D810268B2F85030EC
:103520009BB2097803EBC103023302EB4302B2F80A
:103530000024C2F30902A36993424ED99B1AA361E6
:10354000A369002B66D16378002B49D12B68B3F8AF
:10355000502092B2134403EB0113B3F80424C2F3D6
:103560000902A3F80424B3F804246FEA42426FEA84
:10357000524292B2A3F804242B686278002A3CD10C
:10358000B3F8502092B21344227803EB0213B3F83D
:103590000C24C2F30902A3F80C24B3F80C246FEA3C
:1035A00042426FEA524292B2A3F80C242178284694
:1035B00005F0DEFB16F4804F41D02A68217832F8FE
:1035C00021309BB223F4E04323F0700343F44043E3
:1035D00043F0800322F8213031E00023A361AFE7FC
:1035E000012BC9D12B68B3F8502092B2134403EBDE
:1035F00001130022A3F80424BEE7012AD6D1B3F8B0
:10360000502092B21344227803EB02130022A3F855
:103610000C24CBE716F4804F0DD0286830F8213009
:103620009BB223F4E04323F0700343F4404343F0A0
:10363000800320F8213094F82430012B12D02A681E
:10364000217832F821309BB223F4E04323F0400389
:1036500083F0300343F4004343F0800322F8213029
:10366000002070BD636913446361E3691344E3613F
:10367000216A2369994224D3C91A21626278002AF7
:1036800043D12A68B2F8501089B20A44217802EB7B
:103690000112B2F80414C1F30901A2F804143E2B7C
:1036A0001AD9580913F01F0F00D10138B2F80414C9
:1036B00089B2800280B2014341F40041A2F80414AF
:1036C00025E019B984F824101346D7E7002384F8BD
:1036D000243023620B46D1E74BB9B2F804146FEAE9
:1036E00041416FEA514189B2A2F804140FE0590830
:1036F00013F0010F00D00131B2F8040480B2890246
:1037000089B20143A2F8041401E0012A06D09BB259
:1037100022896169286801F0D4FF90E72A68B2F82D
:10372000501089B20A44217802EB011299B2A2F832
:103730000414ECE70268B2F850309BB2097803EB4E
:10374000C103063302EB4302B2F80024C2F30902BC
:10375000A36993424FD39B1AA361A369002B67D13E
:103760006378002B4AD12B68B3F8502092B21344EF
:1037700003EB0113B3F80424C2F30902A3F80424F1
:10378000B3F804246FEA42426FEA524292B2A3F8BD
:1037900004242B686278002A3DD1B3F8502092B2FD
:1037A0001344227803EB0213B3F80C24C2F309028A
:1037B000A3F80C24B3F80C246FEA42426FEA524299
:1037C00092B2A3F80C242178284605F0D1FA16F419
:1037D000804F7FF434AF2A68217832F821309BB2D1
:1037E00023F4E04323F0700343F4404343F08003A9
:1037F00022F8213023E70023A361AEE7012BC8D1D3
:103800002B68B3F8502092B2134403EB011300224B
:10381000A3F80424BDE7012AD5D1B3F8502092B211
:103820001344227803EB02130022A3F80C24CAE706
:1038300016F4804F0DD1286830F821309BB223F464
:10384000E04323F0700343F4404343F0800320F847
:10385000213094F82430012B7FF4F1AE63691344D6
:103860006361E3691344E361216A2369994224D3C4
:10387000C91A21622A686178002942D1B2F8501031
:1038800089B20A44217802EB0112B2F80C14C1F398
:103890000901A2F80C143E2B1AD9580913F01F0F76
:1038A00000D10138B2F80C1489B2800280B2014311
:1038B00041F40041A2F80C1425E019B984F8241051
:1038C0001346D7E70023236284F824300B46D1E760
:1038D0004BB9B2F80C146FEA41416FEA514189B219
:1038E000A2F80C140FE0590813F0010F00D00131B9
:1038F000B2F80C0480B2890289B20143A2F80C1418
:1039000001E0012906D09BB262896169286801F053
:10391000D8FE94E6B2F8501089B20A44217802EB3E
:10392000011299B2A2F80C14EDE72DE9F041054619
:103930002868B0F8443013F4004F00F0A082B0F8CB
:103940004440A3B214F00F0440F0E08013F0100FD5
:103950006CD003889AB213F4006F40F09A8012F48E
:10396000004FE5D003889BB223F070031B051B0DAD
:1039700043F0800303802868B0F850309BB295F87C
:10398000502103EBC203063300EB4303B3F80034CA
:10399000C3F30903C5F86C318BB1D5F8641171B16B
:1039A000B5F8562102F08CFAD5F86431D5F86C21BF
:1039B0001344C5F864310021284605F0CDF92A6882
:1039C000138899B213F4006FB2D101F44051B1F5EC
:1039D000405FADD0B2F850309BB21A44B2F80C340C
:1039E000C3F30903A2F80C34D5F860313E2B74D927
:1039F000590913F01F0F00D10139B2F80C349BB2F2
:103A0000890289B20B4343F40043A2F80C342A68BC
:103A100013889BB223F4804323F0700383F4405354
:103A200043F4004343F08003138081E703889BB293
:103A300023F4E14323F070036FEA43436FEA5343F7
:103A40009BB203802A68B2F850309BB2297C03EB0A
:103A5000C103023302EB4302B2F80034C3F309039B
:103A6000EB626A6A1A446A620021284605F080F90E
:103A70006B7B002B3FF45CAFAB6A002B7FF458AF3D
:103A80006B7B2A6843F08003A2F84C3000236B73F1
:103A90004EE7B0F850309BB295F8502103EBC203CB
:103AA000063300EB4303B3F80034C3F30903C5F84E
:103AB0006C31B5F8562105F5267102F001FA2A6835
:103AC00013889BB223F070031B051B0D43F080038A
:103AD0001380284605F038F92AE74BB9B2F80C34C0
:103AE0006FEA43436FEA53439BB2A2F80C348EE76C
:103AF000590813F0010F00D00131B2F80C3498B21C
:103B00008B029BB20343A2F80C3480E730F82430D8
:103B10009EB213F4004F50D116F0800F3FF408AF5F
:103B200004EB8401C900103129442A6832F824309A
:103B30009BB223F4E14323F070036FEA43436FEA3F
:103B400053439BB222F8243004EB840305EBC303F8
:103B5000DB7C012B00F0F38016F4807F40F08A813B
:103B60002868B0F850309BB204EB840205EBC20227
:103B7000167C03EBC603023300EB4303B3F80034B7
:103B8000C3F30903621C02EB820255F832209A4209
:103B900040F25381671C07EB8707D21A45F837209C
:103BA000621C02EB820255F83220002A40F04C8160
:103BB0003146284605F0DCF8BAE630F824309BB2EE
:103BC00023F070031B051B0D43F0800320F8243005
:103BD00004EB8401C90001F5A87105EB010804EBB1
:103BE000840305EBC30393F85C31002B42D12868B2
:103BF000B0F850309BB204EB840205EBC20292F89D
:103C0000502103EBC203063300EB4303B3F8007407
:103C1000C7F3090717BB04EB840305EBC303D3F811
:103C20006C213A44C3F86C21D3F864213A44C3F8B8
:103C30006421D3F868313BB104EB840305EBC30383
:103C4000D3F860319F4275D204EB840305EBC303C4
:103C500093F85011284605F07FF85DE704EB8401E6
:103C600005EBC1013B46B1F85621D1F8641102F0D1
:103C700027F9D0E704EB840305EBC30393F8533132
:103C8000022B35D0296804EB840205EBC20292F8BE
:103C9000500131F820309BB223F4E04323F070034D
:103CA00043F4004343F0C00321F82030286892F821
:103CB000502130F8223013F4804F20D0B0F850302B
:103CC0009BB203EBC203023300EB4303B3F800746F
:103CD000C7F30907002F9ED004EB840105EBC10157
:103CE0003B46B1F85821D1F8641102F0E9F892E7A7
:103CF000324641462846FFF7E6FA07468BE7B0F81A
:103D000050309BB203EBC203063300EB4303B3F81E
:103D10000074C7F30907002F3FF47DAF04EB840163
:103D200005EBC1013B46B1F85A21D1F8641102F00C
:103D3000C7F870E74146286801F0D6FCECE6631C42
:103D400003EB8303DB000022EA5004EB840305EB62
:103D5000C3031B7F1BB316F0400F3BD004EB84035F
:103D600005EBC3035B7C1BBB2B68B3F8502092B2FE
:103D7000134404EB840205EBC202127C03EB021332
:103D8000B3F80424C2F30902A3F80424B3F804240A
:103D90006FEA42426FEA524292B2A3F8042404EB63
:103DA000840405EBC404217C284604F0E1FFBFE550
:103DB000012BF4D12B68B3F8502092B2134404EBDA
:103DC000840205EBC202127C03EB02130022A3F86B
:103DD0000424E4E72B6804EB840205EBC202527C66
:103DE000D2B9B3F8502092B2134404EB840205EB2D
:103DF000C202127C03EB0213B3F80C24C2F30902D3
:103E0000A3F80C24B3F80C246FEA42426FEA524242
:103E100092B2A3F80C24C2E7012AC0D1B3F8502013
:103E200092B2134404EB840205EBC202127C03EB52
:103E300002130022A3F80C24B1E7621C02EB8202F9
:103E4000D2000027AF50ABE604EB840205EBC202C0
:103E5000566A1E445662013404EB840205EBC2022A
:103E6000526804EB840405EBC4041344636001F05E
:103E70003BFC5DE532462846FFF747FB58E500204E
:103E8000BDE8F08190F89032012B0CD010B50446BB
:103E9000012380F890324173006801F002FC002099
:103EA00084F8900210BD0220704710B584B004461B
:103EB000006801F000FC10F4004F20D110F4806F76
:103EC00021D110F4804F2FD110F4005F37D110F4BE
:103ED000805F3ED110F4006F40F0878010F4007FC7
:103EE00040F0AE8010F4807F27D02268B2F84430D2
:103EF0009BB223F480739BB2A2F844301DE02046AD
:103F0000FFF713FD19E02268B2F844309BB223F4A6
:103F100080639BB2A2F84430204604F03AFF0021AF
:103F20002046FFF7AFFF08E02268B2F844309BB2AA
:103F300023F480439BB2A2F8443004B010BD226841
:103F4000B2F844309BB223F400539BB2A2F8443041
:103F5000F3E72268B2F840309BB223F004039BB22F
:103F6000A2F840302268B2F840309BB223F0080338
:103F70009BB2A2F84030204604F02EFF2268B2F82F
:103F800044309BB223F480539BB2A2F84430D4E770
:103F9000226832F8231004AA02EB430222F8101C14
:103FA0000133DBB2072BF3D92268B2F840309BB261
:103FB00043F00103A2F840302268B2F840309BB2CF
:103FC00023F001039BB2A2F840302368B3F84420E9
:103FD00012F4806FF9D0B3F8442092B222F48062D8
:103FE00092B2A3F8442000230BE00023DAE7226812
:103FF00004A901EB430131F8101C22F8231001330E
:10400000DBB2072BF3D92268B2F840309BB243F001
:104010000803A2F840302268B2F844309BB223F47F
:1040200000639BB2A2F844302268B2F840309BB2E1
:1040300043F00403A2F84030204604F0BDFE7CE7C4
:104040002268B2F844309BB223F400739BB2A2F80A
:104050004430204604F097FE6FE710B5044608464A
:1040600011F0800F26D101F0070C0CEB8C0E4FEAFB
:10407000CE0E0EF5A87E04EB0E010CEB8C0C04EBBF
:10408000CC0C4FF0000E8CF851E100F007000870E6
:104090000A61CB70022B1DD094F89032012B1CD0FA
:1040A000012384F89032206800F09CFF002084F8FF
:1040B000900210BD01F0070C0CEB8C01C90010310F
:1040C00021440CEB8C0C04EBCC0C4FF0010E8CF863
:1040D00011E0DAE700230B71DEE70220E9E710B513
:1040E00004460A4611F0800F1FD101F0070000EBD3
:1040F0008003DB0003F5A873E11800EB800004EBFC
:10410000C000002380F8513102F007020A7094F8D1
:104110009032012B17D0012384F89032206801F0EF
:104120005FF9002084F8900210BD01F0070000EB59
:104130008003DB001033E11800EB800004EBC000CB
:1041400001234374E0E70220EEE710B501F0070C0D
:104150000CEB8C01C90001F5A8710CEB8C0E00EB87
:10416000CE0ECEF86421CEF868310024CEF86C4132
:104170008EF851418EF850C10144006801F0B4FA44
:10418000204610BD01F0070101EB810100EBC100E9
:10419000D0F86C01704738B501F0070C0CEB8C01BE
:1041A000C90010310CEB8C0E00EBCE0ECEF82420A3
:1041B0000CF1010202EB820440F8343001258EF844
:1041C0003450CEF8303000EBC402002454608EF836
:1041D00011508EF810C00144006801F085FA2046A5
:1041E00038BD38B501F007050279AA4235D3044637
:1041F0000B4611F0800F1ED101EB8101C90001F5C2
:10420000A871014403EB830300EBC303002283F88E
:10421000512101238B700D7094F89032012B1ED028
:10422000012384F89032206801F0C5F97DB10020A7
:1042300084F8900238BD05EB8501C90010310144B6
:1042400005EB850300EBC30301225A74E1E704F593
:104250002671206801F033FAE9E70120EAE702203D
:10426000E8E70B46017903F00F02914234D310B511
:10427000044613F0800F21D103F0070202EB820104
:10428000C90001F5A871014402EB820200EBC202F1
:10429000002082F8510100228A7003F007030B709E
:1042A00094F89032012B19D0012384F890322068C1
:1042B00001F0A6F9002084F8900210BD03F0070277
:1042C00002EB8201C9001031014402EB820200EBD3
:1042D000C20201205074DEE7012070470220ECE7A3
:1042E00011F0800F0BD001F0070101EB8101C90033
:1042F0001031084452B90273C3800020704701EBAB
:104300008101C90001F5A8710844F3E70122027395
:1043100003811B0C4381F0E782B0084B1B68084AFD
:10432000A2FB03235B0A00FB03F3019300BF019B85
:104330005A1E0192002BF9D102B0704700000020F4
:10434000D34D6210002800F0F38170B582B00446AE
:10435000036813F0010F2CD09A4B5B6803F00C0339
:10436000042B1DD0974B5B6803F00C03082B12D075
:104370006368B3F5803F41D0002B55D103F18043F2
:1043800003F504331A6822F480321A601A6822F4A2
:1043900080221A6037E08B4B5B6813F4803FE7D0D4
:1043A000884B1B6813F4003F03D06368002B00F0B8
:1043B000C181236813F0020F75D0824B5B6813F044
:1043C0000C0F5FD07F4B5B6803F00C03082B54D0BD
:1043D0002369002B00F08A807B4B01221A60FEF7D4
:1043E000EFFD0546774B1B6813F0020F75D1FEF702
:1043F000E7FD401B0228F5D90320A0E1714A1368AC
:1044000043F480331360636843B3FEF7D9FD054678
:104410006C4B1B6813F4003FCBD1FEF7D1FD401B62
:104420006428F5D903208AE1B3F5A02F09D0654BA4
:104430001A6822F480321A601A6822F480221A6004
:10444000E1E703F18043A3F53C331A6842F480228C
:104450001A601A6842F480321A60D4E7FEF7B0FDA1
:104460000546584B1B6813F4003FA2D0FEF7A8FD89
:10447000401B6428F5D9032061E1524B5B6813F4BB
:10448000803FA5D14F4B1B6813F0020F03D0236967
:10449000012B40F051814B4A136823F0F803616906
:1044A00043EAC1031360236813F0080F33D0A369F4
:1044B000002B5DD0444B0122C3F88024FEF780FD21
:1044C0000546404B5B6A13F0020F21D1FEF778FDE1
:1044D000401B0228F5D9032031E13A4A136823F042
:1044E000F803616943EAC1031360DCE7364B00223D
:1044F0001A60FEF765FD0546324B1B6813F0020F8C
:10450000D1D0FEF75DFD401B0228F5D9032016E14E
:104510000120FFF701FF236813F0040F00F09880DB
:10452000284BDB6913F0805F35D1264BDA6942F006
:104530008052DA61DB6903F080530193019B012310
:104540001E46224B1B6813F4807F27D0E368012BA3
:104550003ED0002B54D103F1804303F504331A6A93
:1045600022F001021A621A6A22F004021A6234E08E
:10457000154B0022C3F88024FEF722FD0546114B9F
:104580005B6A13F0020FC6D0FEF71AFD401B02282B
:10459000F5D90320D3E000231E46D2E70B4A136867
:1045A00043F480731360FEF70BFD0546074B1B6851
:1045B00013F4807FCAD1FEF703FD401B6428F5D9B0
:1045C0000320BCE0001002400000424200700040A6
:1045D0005F4A136A43F001031362E36833B3FEF7E3
:1045E000EFFC05465A4B1B6A13F0020F2FD1FEF762
:1045F000E7FC401B41F288339842F3D903209EE048
:10460000052B09D0524B1A6A22F001021A621A6A6B
:1046100022F004021A62E0E74D4B1A6A42F00402EB
:104620001A621A6A42F001021A62D6E7FEF7C8FC63
:104630000546474B1B6A13F0020F08D0FEF7C0FC7B
:10464000401B41F288339842F3D9032077E0E6B962
:10465000E369002B72D03E4A526802F00C02082A2D
:1046600056D0022B17D03B4B00221A66FEF7A8FC4F
:104670000446374B1B6813F0007F47D0FEF7A0FCC1
:10468000001B0228F5D9032059E0314AD36923F0F1
:104690008053D361DCE72F4B00221A66FEF790FCB3
:1046A00005462B4B1B6813F0007F06D0FEF788FCF5
:1046B000401B0228F5D9032041E0236AB3F5803F6F
:1046C0001AD023494B6823F47413226A606A0243A8
:1046D00013434B601F4B01221A66FEF771FC044620
:1046E0001B4B1B6813F0007F0ED1FEF769FC001B0B
:1046F0000228F5D9032022E0154A536823F4003339
:10470000A1680B435360DCE7002018E0002016E0AE
:10471000012B16D00E4B5B6803F48031226A914264
:1047200011D103F47013626A93420ED1002006E0A7
:1047300001207047012002E0012000E0184602B08D
:1047400070BD0120FBE70120F9E70120F7E700BF7A
:1047500000100240000042420F4B5B6803F00C0265
:10476000082A01D00D487047C3F383420C49885C86
:1047700013F4803F0BD0084B5B68C3F34043094AF6
:10478000D35C064A02FB00F0B0FBF3F07047064B27
:1047900003FB00F0704700BF0010024000127A00D7
:1047A00084B9000880B9000800093D00002800F025
:1047B000A08070B50D460446524B1B6803F00703FA
:1047C0008B420BD24F4A136823F007030B4313604D
:1047D000136803F007038B4240F08D80236813F0C9
:1047E000020F17D013F0040F04D0474A536843F464
:1047F000E0635360236813F0080F04D0424A536803
:1048000043F460535360404A536823F0F003A168B7
:104810000B435360236813F0010F31D06368012B01
:1048200020D0022B25D0384A126812F0020F64D033
:1048300035494A6822F0030213434B60FEF7C0FB80
:104840000646314B5B6803F00C036268B3EB820FE2
:1048500016D0FEF7B5FB801B41F288339842F0D9A1
:10486000032045E0284A126812F4003FE0D10120FD
:104870003EE0254A126812F0007FD9D1012037E0CE
:10488000204B1B6803F00703AB420AD91D4A13688B
:1048900023F007032B431360136803F00703AB42B5
:1048A0002DD1236813F0040F06D0174A536823F460
:1048B000E063E1680B435360236813F0080F07D0EF
:1048C000114A536823F46053216943EAC1035360DA
:1048D000FFF742FF0C4B5B68C3F303130B4AD35C37
:1048E000D8400B4B18600B4B1868FEF795FA002068
:1048F00070BD012070470120FAE70120F8E7012090
:10490000F6E700BF002002400010024070B9000826
:104910000000002008000020014B1868704700BF0D
:104920000000002008B5FFF7F7FF044B5B68C3F3F6
:104930000223034AD35CD84008BD00BF00100240E8
:1049400068B900080F2303600B4B5A6802F003029A
:1049500042605A6802F0F00282605A6802F4E06233
:10496000C2605B68DB0803F4E0630361034B1B6810
:1049700003F007030B607047001002400020024064
:1049800070B582B00446036813F0010F39D0414B73
:10499000DB6913F0805F4DD13E4BDA6942F0805203
:1049A000DA61DB6903F080530193019B01231E460A
:1049B000394B1B6813F4807F3FD0364B1B6A13F4CE
:1049C000407315D0626802F440729A4210D0314AA6
:1049D000136A23F4407031494FF0010CC1F840C410
:1049E0004FF0000CC1F840C4106213F0010F38D131
:1049F000284A136A23F4407361680B431362002E44
:104A000040D1236813F0020F06D0224A536823F4E2
:104A10004043A1680B435360236813F0100F36D056
:104A20001C4A536823F48003E1680B435360002061
:104A300002B070BD00231E46BAE7174A136843F45C
:104A400080731360FEF7BCFA0546134B1B6813F422
:104A5000807FB2D1FEF7B4FA401B6428F5D9032059
:104A6000E6E7FEF7ADFA05460A4B1B6A13F0020FA4
:104A7000BED1FEF7A5FA401B41F288339842F3D924
:104A80000320D5E7D36923F08053D361B9E7002031
:104A9000CEE700BF0010024000700040000042421C
:104AA000036AD0F820C02CF0010CC0F820C0D0F868
:104AB00018C02CF0F00C4CEA021223F00A030B434E
:104AC000826103627047036AD0F820C02CF0100C9A
:104AD000C0F820C0D0F818C02CF4704C4CEA023258
:104AE00023F0A00343EA01138261036270478368E5
:104AF00023F070030B4343F007038360704700000B
:104B000090F83D30012B22D1022380F83D3003681C
:104B1000114A934210D0B3F1804F0DD0A2F59432D8
:104B2000934209D002F58062934205D01A6842F0A0
:104B300001021A60002070479A6802F00702062AF4
:104B400007D01A6842F001021A6000207047012065
:104B500070470020704700BF002C014090F83D30A6
:104B6000012B27D1022380F83D300268D36843F03F
:104B70000103D3600368114A934210D0B3F1804F10
:104B80000DD0A2F59432934209D002F5806293428F
:104B900005D01A6842F001021A60002070479A6836
:104BA00002F00702062A07D01A6842F001021A60D2
:104BB000002070470120704700207047002C014002
:104BC000704770477047704770B504460368DE68E9
:104BD0001D6915F0020F10D016F0020F0DD06FF006
:104BE00002021A610123037703689B6913F0030F24
:104BF0005ED0FFF7E6FF0023237715F0040F12D0F5
:104C000016F0040F0FD023686FF004021A6102231C
:104C1000237723689B6913F4407F4FD02046FFF72A
:104C2000D0FF0023237715F0080F12D016F0080FDD
:104C30000FD023686FF008021A61042323772368DA
:104C4000DB6913F0030F40D02046FFF7BAFF0023C3
:104C5000237715F0100F12D016F0100F0FD0236825
:104C60006FF010021A61082323772368DB6913F4BD
:104C7000407F31D02046FFF7A4FF0023237715F0B3
:104C8000010F02D016F0010F2DD115F0800F02D0C8
:104C900016F0800F2FD115F0400F02D016F0400F04
:104CA00031D115F0200F02D016F0200F33D170BD96
:104CB000FFF786FF2046FFF785FF9CE72046FFF7BA
:104CC0007FFF2046FFF77EFFABE72046FFF778FF28
:104CD0002046FFF777FFBAE72046FFF771FF20462F
:104CE000FFF770FFC9E723686FF001021A612046E1
:104CF000FDF71CFFC9E723686FF080021A612046A8
:104D000000F041F9C7E723686FF040021A612046BE
:104D1000FFF759FFC5E723686FF020021A612046AC
:104D200000F030F9C3E7000003681F4A90420AD040
:104D3000B0F1804F07D0A2F59432904203D002F533
:104D40008062904203D123F070034A681343164AED
:104D500090420AD0B0F1804F07D0A2F59432904231
:104D600003D002F58062904203D123F44073CA68F5
:104D7000134323F080034A69134303608B68C362C3
:104D80000B688362084B98420AD001234361036990
:104D900013F0010F03D0036923F00103036170478F
:104DA0000B690363F1E700BF002C014040B310B56D
:104DB000044690F83D30F3B1022384F83D3021469B
:104DC00051F8040BFFF7B0FF012384F8463084F854
:104DD0003E3084F83F3084F8403084F8413084F825
:104DE000423084F8433084F8443084F8453084F805
:104DF0003D30002010BD80F83C30FEF7ADF8DBE719
:104E000001207047D0F808C02CF47F4C42EA0322FE
:104E10000A4342EA0C028260704790F83C30012B52
:104E200078D010B50446012380F83C30022380F886
:104E30003D300268936823F47F4323F07703936047
:104E40000B68602B4CD023D8402B54D011D8202B8A
:104E500003D00AD80BB1102B05D119462068FFF7F3
:104E600046FE002028E0012026E0302BF5D001206E
:104E700022E0502B0AD1CA6849680068FFF710FE8B
:104E800050212068FFF733FE002015E0012013E0D9
:104E9000B3F5805F3AD0B3F5005F14D0702B37D1F3
:104EA000CB684A6889680068FFF7ACFF226893689E
:104EB00043F0770393600020012384F83D30002302
:104EC00084F83C3010BDCB684A6889680068FFF7F9
:104ED00099FF2268936843F4804393600020EBE7D6
:104EE000CA6849680068FFF7EEFD60212068FFF797
:104EF000FEFD0020E0E7CA6849680068FFF7D0FDC2
:104F000040212068FFF7F3FD0020D5E70020D3E71C
:104F10000120D1E70220704790F83C20012A2DD0D3
:104F200000B50346012280F83C20022280F83D2093
:104F300002685068D2F808E020F0700C086840EA77
:104F40000C0050601A680E4882420AD0B2F1804FBD
:104F500007D0A0F59430824203D000F580608242F1
:104F600005D12EF0800E496841EA0E0191600122C0
:104F700083F83D20002083F83C0000BD02207047EC
:104F8000002C01407047704784B004A800E90E006F
:104F9000002004B0704703460020A3F844004FF4FB
:104FA0003F42A3F840207047B0F840309BB223F452
:104FB0007C535B045B0CA0F840300020704700205D
:104FC000704784B0844604A800E90E000123ACF8C1
:104FD00040300020ACF84000ACF84400ACF8500081
:104FE00004B0704700B5034691F800C030F82C209B
:104FF00092B222F4EC4222F0700292B2C8780228F7
:1050000067D008D878B1012803D142F4806200202B
:105010000BE0012009E0032803D142F4C062002024
:1050200003E0012001E042F4007248F2800E42EAFF
:105030000E0223F82C2091F800C033F82C2092B2F5
:1050400022F4E04222F0700242EA0C0242EA0E022E
:1050500023F82C200A7B002A40F0DC804A78002AC2
:1050600048D0B3F8502092B21A4491F800C002EB35
:105070000C12B1F806C04FEA5C0C4FEA4C0CA2F8D7
:1050800000C491F800C033F82C2012F0400F0CD06F
:1050900033F82C2092B222F4E04222F0700242F463
:1050A000004242F0C00223F82C20CA78012A12D014
:1050B000097833F8212092B222F4E04222F0400233
:1050C00082F0200242F4004242F0800223F82120C4
:1050D0001AE10020A9E7097833F8212092B222F4DE
:1050E000E04222F0400242F4004242F0800223F803
:1050F000212009E1B3F8502092B21A4491F800C07F
:1051000002EB0C12B1F806C04FEA5C0C4FEA4C0CF3
:10511000A2F808C4B3F8502092B21A4491F800C023
:1051200002EB0C12B2F80CC4CCF3090CA2F80CC4BC
:10513000D1F810C0BCF13E0F3AD94FEA5C1E1CF00A
:105140001F0F01D10EF1FF3EB2F80CC41FFA8CFC08
:105150004FEA8E2E1FFA8EFE4CEA0E0C4CF4004CD9
:10516000A2F80CC491F800C033F82C2012F4804F40
:105170000CD033F82C2092B222F4E04222F07002DC
:1051800042F4404242F0800223F82C20097889BB87
:1051900033F8212092B222F4804222F0700282F48D
:1051A000405242F4004242F0800223F82120ABE05A
:1051B000BCF1000F0AD1B2F80CC46FEA4C4C6FEA94
:1051C0005C4C1FFA8CFCA2F80CC4CBE74FEA5C0ED7
:1051D0001CF0010F01D00EF1010EB2F80CC41FFA41
:1051E0008CFC4FEA8E2E1FFA8EFE4CEA0E0CA2F8B3
:1051F0000CC4B7E733F8212092B222F4804222F0A7
:10520000700282F4005242F4004242F0800223F81D
:10521000212079E0CA78022A77D091F800C033F8CB
:105220002C2092B222F4E24222F0700242F40042B8
:1052300042F0800223F82C20B3F8502092B21A4496
:1052400091F800C002EB0C12B1F808C04FEA5C0CF8
:105250004FEA4C0CA2F800C4B3F8502092B21A44A2
:1052600091F800C002EB0C12B1F80AC04FEA5C0CD6
:105270004FEA4C0CA2F808C44A78002A55D191F89C
:1052800000C033F82C2012F4804F0CD033F82C20BF
:1052900092B222F4E04222F0700242F4404242F024
:1052A000800223F82C2091F800C033F82C2012F053
:1052B000400F0CD033F82C2092B222F4E04222F0BE
:1052C000700242F4004242F0C00223F82C2091F810
:1052D00000E033F82E2092B222F4804222F07002D5
:1052E00082F4405248F2800C42EA0C0223F82E204D
:1052F000097833F8212092B222F4E04222F04002F1
:1053000042EA0C0223F8212000BD91F800C033F8D6
:105310002C2092B222F4E04222F0700242F40142C8
:1053200042F0800223F82C2086E791F800C033F881
:105330002C2012F4804F0CD033F82C2092B222F49F
:10534000E04222F0700242F4404242F0800223F830
:105350002C2091F800C033F82C2012F0400F0CD014
:1053600033F82C2092B222F4E04222F0700242F490
:10537000004242F0C00223F82C20CA78012A1FD034
:1053800091F800C033F82C2092B222F4E04222F0CF
:10539000400282F0200242F4004242F0800223F8F0
:1053A0002C20097833F8212092B222F4804222F096
:1053B000700242F4004242F0800223F82120A3E769
:1053C00091F800C033F82C2092B222F4E04222F08F
:1053D000400242F4004242F0800223F82C20E0E731
:1053E0000B7B002B46D14B7813B30A7830F8223070
:1053F00013F0400F0CD030F822309BB223F4E0437E
:1054000023F0700343F4004343F0C00320F822303C
:105410000A7830F822309BB223F4E04323F04003B3
:1054200043F4004343F0800320F82230002070470B
:105430000A7830F8223013F4804F0CD030F8223044
:105440009BB223F4E04323F0700343F4404343F062
:10545000800320F822300A7830F822309BB223F4FF
:10546000804323F0700343F4004343F0800320F8AB
:105470002230DBE74B78002B4ED10A7830F822300F
:1054800013F4804F0CD030F822309BB223F4E04369
:1054900023F0700343F4404343F0800320F82230AC
:1054A0000A7830F8223013F0400F0CD030F8223058
:1054B0009BB223F4E04323F0700343F4004343F032
:1054C000C00320F822300A7830F822309BB223F44F
:1054D000E04323F0700343F4004343F0C00320F89B
:1054E00022300A7830F822309BB223F4804323F034
:1054F000700348F2800C43EA0C0320F822300A784B
:1055000030F822309BB223F4E04323F0400343EA17
:105510000C0320F8223089E70A7830F8223013F49F
:10552000804F0CD030F822309BB223F4E04323F0BC
:10553000700343F4404343F0800320F822300A789C
:1055400030F8223013F0400F0CD030F822309BB2EC
:1055500023F4E04323F0700343F4004343F0C0031B
:1055600020F822300A7830F822309BB223F4E0434E
:1055700023F0700343F4404343F0800320F82230CB
:105580000A7830F822309BB223F4E04323F0400342
:1055900048F2800C43EA0C0320F822300A7830F8F5
:1055A00022309BB223F4804323F0700343EA0C03C0
:1055B00020F822303AE74B788BB10A7830F8223065
:1055C0009BB223F4E04323F0400383F0100343F441
:1055D000004343F0800320F82230002070470A780F
:1055E00030F822309BB223F4804323F0700383F41D
:1055F000805343F4004343F0800320F82230ECE76B
:105600000B7B002B4BD14B7833B30A7830F8223028
:1056100013F0400F0CD030F822309BB223F4E0435B
:1056200023F0700343F4004343F0C00320F822301A
:10563000CB78012B33D00A7830F822309BB223F498
:10564000E04323F0400383F0200343F4004343F09E
:10565000800320F8223022E00A7830F8223013F458
:10566000804F0CD030F822309BB223F4E04323F07B
:10567000700343F4404343F0800320F822300A785B
:1056800030F822309BB223F4804323F0700383F47C
:10569000405343F4004343F0800320F822300020BD
:1056A000704711B98023A0F84C30002070470020CB
:1056B000704700207047B0F8440080B27047002067
:1056C000704701335B0800EB420000F5806008E0A2
:1056D0000A7891F801C042EA0C2220F8042B02312A
:1056E000013B002BF4D1704770B505460C464A7853
:1056F000012A3BD00B7B002B40F0A7828B690A6903
:10570000934240F285829B1A8B61B5F850309BB270
:105710002B44217803EB0113B3F80C14C1F30901F6
:10572000A3F80C143E2A40F27782510912F01F0FA1
:1057300000D10139B3F80C2492B2890289B20A432C
:1057400042F40042A3F80C24227835F822309BB2B0
:1057500023F4804323F0700383F4405343F4004365
:1057600043F0800325F82230002070BD8B691E466F
:1057700009698B4200D90E46237B73B3E378022B71
:105780004DD0236A9B1B2362217835F8213013F01A
:10579000400F00F0F581002A40F0E281B5F850306A
:1057A0009BB22B4403EB0113B3F80C24C2F30902A0
:1057B000A3F80C243E2E40F2BA81710916F01F0F97
:1057C00000D10139B3F80C2492B2890289B20A439C
:1057D00042F40042A3F80C24CBE1B6B23346E2888F
:1057E00061692846FFF76DFFB5F850309BB22B4436
:1057F000227803EB0213A3F80464227835F82230F0
:105800009BB223F4E04323F0400383F0300343F4DE
:10581000004343F0800325F822300020A5E7236AE7
:10582000994280F06681227835F822309BB223F4C9
:10583000E04323F0700343F4014343F0800325F871
:105840002230236A9B1B2362227835F8223013F022
:10585000400F00F0A7806378B3BBB5F850309BB21F
:105860002B4403EB0213B3F80C24C2F30902A3F890
:105870000C243E2E0FD9710916F01F0F00D10139EB
:10588000B3F80C2492B2890289B20A4342F400426E
:10589000A3F80C241AE04EB9B3F80C246FEA424284
:1058A0006FEA524292B2A3F80C240FE0720816F08D
:1058B000010F00D00132B3F80C1489B2920292B2F7
:1058C0000A43A3F80C2401E0012B30D0B3B2628963
:1058D00061692846FFF7F5FE636933446361236A13
:1058E000226993422DD99B1B23626378002B45D1FB
:1058F000B5F850309BB22B44227803EB0213B3F877
:105900000424C2F30902A3F804243E2E1DD9710910
:1059100016F01F0F00D10139B3F8042492B28902A6
:1059200089B20A4342F40042A3F8042428E0B5F8FF
:1059300050309BB22B4403EB0213B2B2A3F80C24F9
:10594000C4E7002222621E46CFE74EB9B3F8042412
:105950006FEA42426FEA524292B2A3F804240FE087
:10596000720816F0010F00D00132B3F8041489B2A6
:10597000920292B20A43A3F8042401E0012B06D05C
:10598000B3B2228961692846FFF79BFE35E7B5F877
:1059900050309BB22B44227803EB0213B2B2A3F82F
:1059A0000424EDE76378B3BBB5F850309BB22B44C9
:1059B00003EB0213B3F80424C2F30902A3F804248E
:1059C0003E2E0FD9710916F01F0F00D10139B3F81F
:1059D000042492B2890289B20A4342F40042A3F835
:1059E00004241AE04EB9B3F804246FEA42426FEA85
:1059F000524292B2A3F804240FE0720816F0010F8D
:105A000000D00132B3F8041489B2920292B20A4370
:105A1000A3F8042401E0012B30D0B3B222896169DC
:105A20002846FFF74EFE636933446361236A2269A7
:105A300093422DD99B1B23626378002B45D1B5F887
:105A400050309BB22B44227803EB0213B3F80C24A2
:105A5000C2F30902A3F80C243E2E1DD9710916F0D9
:105A60001F0F00D10139B3F80C2492B2890289B218
:105A70000A4342F40042A3F80C2428E0B5F8503061
:105A80009BB22B4403EB0213B2B2A3F80424C4E785
:105A9000002222621E46CFE74EB9B3F80C246FEA0B
:105AA00042426FEA524292B2A3F80C240FE072080D
:105AB00016F0010F00D00132B3F80C1489B2920233
:105AC00092B20A43A3F80C2401E0012B06D0B3B232
:105AD000628961692846FFF7F4FD8EE6B5F850301B
